:020000040800F2
:100000006807002069030008F3130008F5130008CF
:10001000F9130008FD130008011400080000000097
:1000200000000000000000000000000005140008AF
:100030000714000800000000091400080B14000851
:100040008303000883030008830300088303000878
:100050008303000883030008830300088303000868
:100060008303000883030008830300088303000858
:100070008303000883030008830300088303000848
:100080008303000883030008830300088303000838
:100090008303000883030008830300088303000828
:1000A0008303000883030008830300088303000818
:1000B0008303000883030008830300088303000808
:1000C00083030008830300088303000883030008F8
:1000D00083030008830300088303000883030008E8
:1000E00083030008830300088303000800F002F87C
:1000F00000F03AF80AA090E8000C82448344AAF188
:100100000107DA4501D100F02FF8AFF2090EBAE885
:100110000F0013F0010F18BFFB1A43F0010318473B
:10012000B88A0000D88A0000103A24BF78C878C185
:10013000FAD8520724BF30C830C144BF04680C60ED
:10014000704700000023002400250026103A28BF35
:1001500078C1FBD8520728BF30C148BF0B60704739
:100160001FB51FBD10B510BD05F05AFD1146FFF7B4
:10017000F7FF01F076F805F078FD03B4FFF7F2FF22
:1001800003BC05F079FD00000CB500200190009043
:100190006C48006840F480306A49086000BF6948D4
:1001A000006800F4003000900198401C0190009815
:1001B00018B90198B0F5A06FF1D16248006800F459
:1001C000003010B10120009001E000200090009864
:1001D000012843D15C48006840F010005A4908608B
:1001E0000846006820F0030008600846006840F0F8
:1001F0000200086053484068524948600846406819
:1002000048600846406840F480604860084640689E
:1002100020F47C1048600846406840F4E8104860CC
:100220000846006840F08070086000BF45480068DC
:1002300000F000700028F9D04248406820F0030028
:10024000404948600846406840F00200486000BFEE
:100250003C48406800F00C000828F9D10CBD10B5EE
:10026000FFF792FF10BD10B53648006840F001005E
:1002700034490860084640683449084031494860BC
:1002800008460068324908402E4908600846006860
:1002900020F4802008600846406820F4FE00486092
:1002A0004FF41F008860FFF7DAFF4FF00060294924
:1002B000086010BD10B5002100200022214B5B68B2
:1002C00003F00C0121B1042906D0082928D107E048
:1002D000214B224C236027E01F4B204C236023E05E
:1002E000184B5B6803F47010164B5B6803F48032A4
:1002F000022303EB904022B9194B4343174C236070
:100300000DE0104B5B6803F4003323B1144B4343FF
:10031000124C236003E0104B4343104C236003E076
:100320000D4B0E4C236000BF00BF064B5B68C3F350
:1003300003130C4CE15C094B1B68CB40074C23605A
:1003400010BD000000100240002002400000FFF835
:10035000FFFFF6FE08ED00E000127A00000000202A
:1003600000093D0004000020094880470948004773
:10037000FEE7FEE7FEE7FEE7FEE7FEE7FEE7FEE755
:10038000FEE7FEE704480549054A064B70470000B2
:1003900067020008ED0000086801002068070020DF
:1003A000680300206803002031490143314A11608D
:1003B000704770B5002100230F22C47804B32D4C80
:1003C000246804F4E064C4F5E064210AC1F1040384
:1003D000CA40447804FA03F18478144021430901A7
:1003E000254C0678A155047804F01F050124AC4083
:1003F00005786D11AD0005F1E025C5F8004109E073
:10040000047804F01F050124AC401C4D06787611D9
:1004100045F8264070BD1A4A0A400243154B1B1F7F
:100420001A60704739B1134A121D12680243114B0A
:100430001B1D1A6006E00F4A121D126882430D4B05
:100440001B1D1A607047042808D14FF0E02109698C
:1004500041F004014FF0E022116107E04FF0E0218C
:10046000096921F004014FF0E0221161704700009A
:100470000000FA050CED00E000E400E080E100E09F
:1004800080FFFF1F10B50446CC48844208D10121EB
:10049000042000F02DFB0021042000F029FB46E0A1
:1004A000C748844208D10121082000F021FB002127
:1004B000082000F01DFB3AE0C248844208D1012127
:1004C000102000F015FB0021102000F011FB2EE0A1
:1004D000BD48844208D10121202000F009FB002101
:1004E000202000F005FB22E0B848844208D1012119
:1004F000402000F0FDFA0021402000F0F9FA16E05B
:10050000B348844208D10121802000F0F1FA002193
:10051000802000F0EDFA0AE0AE48844207D10121C4
:10052000801500F0E5FA0021A01500F0E1FA10BDF9
:1005300010B50121084600F0DBFA0021012000F08F
:10054000D7FA10BD2DE9F041024600250026002013
:1005500000230024002791F803C00CF00F0591F848
:1005600003C00CF0100CBCF1000F03D091F802C0D6
:100570004CEA050591F800C0BCF1000F31D01468B9
:1005800000202BE04FF0010C0CFA00F3B1F800C092
:100590000CEA03069E4220D183004FF00F0C0CFAA8
:1005A00003F7BC4305FA03FC4CEA040491F803C0CA
:1005B000BCF1280F06D14FF0010C0CFA00FCC2F878
:1005C00014C00AE091F803C0BCF1480F05D14FF008
:1005D000010C0CFA00FCC2F810C0401C0828D1D352
:1005E0001460B1F800C0BCF1FF0F34DD5468002086
:1005F0002EE000F1080C4FF0010808FA0CF3B1F8F6
:1006000000C00CEA03069E4221D183004FF00F0C7C
:100610000CFA03F7BC4305FA03FC4CEA040491F816
:1006200003C0BCF1280F05D100F1080C08FA0CF842
:10063000C2F8148091F803C0BCF1480F07D100F153
:10064000080C4FF0010808FA0CF8C2F81080401CA2
:100650000828CED35460BDE8F0814FF6FF710180C9
:10066000022181700421C170704702460020936806
:100670000B400BB1012000E0002070470146886864
:1006800080B2704702460020D3680B400BB10120B6
:1006900000E0002070470146C86880B270470161E1
:1006A0007047416170470AB1016100E041617047E4
:1006B000C16070474FF480320A4382618161826178
:1006C00082698269704702460020434B18684FF6E2
:1006D0008073184040EA021008433F4B186070478F
:1006E0003E49C8617047F0B50A4600230024002146
:1006F000002500F00046B6F1004F02D1364EF169F8
:1007000001E0354E7168C0F3034583B200F4401632
:10071000B6F5401F08D121F070612F4E766826F0A3
:1007200070662D4F7E6012E000F48016B6F5801FD3
:1007300006D1032606FA05F4A14341F0706106E0F4
:10074000460D360103FA06F6B14341F0706122B15D
:10075000460D360103FA06F6314300F00046B6F1C5
:10076000004F02D11C4EF16101E01B4E7160F0BDE3
:1007700030B500228B071C0F0F2303FA04F2164B2F
:1007800008338C1053F824309343134C08348D10E5
:1007900044F8253023468C1053F824308C07240F5E
:1007A00000FA04F423430C4C08348D1044F825302F
:1007B00030BD0A49DC310860704700000008014084
:1007C000000C0140001001400014014000180140DD
:1007D000001C0140002001400000014000002042B8
:1007E000DF48006840F00100DD49086008464068C5
:1007F000DC490840DA49486008460068DA490840A0
:10080000D74908600846006820F480200860084640
:10081000406820F4FE0048604FF41F008860704775
:10082000CF49096821F48031CD4A11601146096829
:1008300021F480211160B0F5803F03D0B0F5802F06
:100840000ED106E0C649096841F48031C44A1160FE
:1008500007E0C349096841F4A021C14A116000E0E2
:1008600000BF00BF704710B50146002200230020E2
:100870004A11012A02D1BA4C236806E0022A02D1A9
:10088000B74C236A01E0B64C636A01F01F020124F1
:1008900094401C400CB1012000E0002010BD38B590
:1008A000002000900024002500BF3120FFF7DBFF6F
:1008B00005460098401C00900098B0F5A06F01D04C
:1008C000002DF2D03120FFF7CEFF08B1012400E067
:1008D0000024204638BD01460020A14A106820F0BF
:1008E000F80040EAC10010607047A04908607047F6
:1008F000024600209A4B586820F47C1042EA01031B
:100900001843974B586070479849086670470146EE
:100910000020934A506820F003000843506070475D
:100920008F48406800F00C007047014600208C4A58
:10093000506820F0F00008435060704701460020E6
:10094000874A506820F4E0600843506070470146D1
:100950000020834A506820F4605040EAC100506093
:10096000704729B17E4A527A02437D4B5A7204E0A5
:100970007B4A527A82437A4B5A7270477B49D8310C
:100980000860704701460020754A506820F44040D6
:100990000843506070470021714A20321170704A3C
:1009A00082F82010012802D004280AD104E0012195
:1009B0006B4A2032117005E00521694A203211701E
:1009C00000E000BF00BF7047694908607047644994
:1009D000096A0143624A11627047654944390860F7
:1009E000704730B500210022002400235C4D6D6863
:1009F00005F00C0121B1042905D0082923D105E017
:100A00005C4D056022E05B4D05601FE0544D6D6854
:100A100005F47012524D6D6805F48034022505EB23
:100A200092421CB9544D554305600BE04C4D6D6826
:100A300005F400351DB1504D5543056002E04D4DA4
:100A40005543056002E04B4D056000BF00BF444DBB
:100A50006D6805F0F0010909484D6B5C0568DD40E3
:100A600045603F4D6D6805F4E061090A434D6B5CDC
:100A70004568DD4085603A4D6D6805F46051C90AEE
:100A80003E4D6B5C4568DD40C560354D6D6805F4D5
:100A90004041890B3A4D6B5CC568B5FBF3F50561C8
:100AA00030BD29B12E4A526902432D4B5A6104E0F0
:100AB0002B4A526982432A4B5A61704729B1284A0E
:100AC00092690243264B9A6104E0254A9269824367
:100AD000234B9A61704729B1214AD2690243204BC6
:100AE000DA6104E01E4AD26982431D4BDA61704725
:100AF00029B11B4AD2680243194BDA6004E0184A54
:100B0000D2688243164BDA60704729B1144A1269E1
:100B10000243134B1A6104E0114A12698243104BDD
:100B20001A61704712494039086070470F49C8641C
:100B300070470B49C87170470948406A40F080709F
:100B400007494862704701460020054A92680A40FA
:100B50000AB1012000E00020704701498872704707
:100B6000001002400000FFF8FFFFF6FE00004242C6
:100B70008004424200127A0000093D001400002067
:100B80002400002010B50446FB48844209D101210D
:100B90008803FFF7ADFF00214FF48040FFF7A8FF67
:100BA00032E0F648844209D101214804FFF7ADFF45
:100BB00000214FF40030FFF7A8FF25E0F048844201
:100BC00009D101218804FFF7A0FF00214FF4802004
:100BD000FFF79BFF18E0EB48844209D10121C804CC
:100BE000FFF793FF00214FF40020FFF78EFF0BE08B
:100BF000E548844208D101210805FFF786FF00215E
:100C00004FF48010FFF781FF10BD2DE9F04786B04B
:100C100005460E460024A24600BFA1460027B08923
:100C200000B100BF2F462C8A4CF6FF700440F088BC
:100C300004432C82AC894EF6F3100440B08831890D
:100C40000843718908430443AC81AC8A4FF6FF40E6
:100C50000440B0890443AC8201A8FFF7C2FEC64835
:100C6000874202D1DDF810A001E0DDF80CA0A889D0
:100C700000F4004040B10AEBCA0000EB0A103168F2
:100C80004900B0FBF1F807E00AEBCA0000EB0A10DC
:100C900031688900B0FBF1F86420B8FBF0F0040182
:100CA0002009642101FB1089A88900F4004040B1AB
:100CB000322000EBC900B0FBF1F000F00700044364
:100CC00008E0322000EB09106421B0FBF1F000F0E5
:100CD0000F0004432C8106B0BDE8F0874FF4165195
:100CE000016000218180C18001810C2141810021AE
:100CF0008181704710B502460020108A4FF2FF0331
:100D000018400B884C8823438C882343CC8823438A
:100D10001843108210BD0021018041808180C18074
:100D2000704721B1828942F40052828104E08289B5
:100D30004DF6FF731A4082817047F0B503460024D8
:100D400000260025002040F66A17B94200D100BFF6
:100D50001846C1F3421401F01F06012707FA06F5F1
:100D6000012C01D10C3004E0022C01D1103000E044
:100D700014301AB107682F43076002E00768AF43D9
:100D80000760F0BD1AB1838A0B43838202E0838A35
:100D90008B4383827047028A4FF6F0731A400282B7
:100DA000028A0A430282704782894FF2FF731A4017
:100DB000828182890A438281704721B1828942F00F
:100DC0000202828104E082894FF6FD731A4082811B
:100DD0007047028A4FF6DF731A400282028A0A4382
:100DE0000282704721B1028A42F48042028204E00A
:100DF000028A4BF6FF731A4002827047C1F3080261
:100E00008280704701468888C0F308007047818956
:100E100041F0010181817047028BD2B20283028BC3
:100E200042EA012202837047028B02F47F4202836E
:100E3000028B0A430283704721B1828A42F020026A
:100E4000828204E0828A4FF6DF731A408282704702
:100E500021B1828A42F01002828204E0828A4FF637
:100E6000EF731A408282704721B1828A42F00802F1
:100E7000828204E0828A4FF6F7731A4082827047BA
:100E800021B1828942F40042828103E08289C2F367
:100E90000E028281704721B1828A42F4006282820E
:100EA00004E0828A4FF2FF731A4082827047828A7E
:100EB0004FF6FB731A408282828A0A43828270470D
:100EC00021B1828A42F00202828204E0828A4FF6D5
:100ED000FD731A408282704702460020B1F5007F00
:100EE00000D100BF13880B400BB1012000E00020AF
:100EF000704701F40072B2F5007F00D100BFCA4311
:100F00000280704770B502460024002300250020AF
:100F100040F66A16B14200D100BFC1F3421501F09C
:100F20001F03012606FA03F3012D02D196893340EF
:100F300006E0022D02D1168A334001E0968A334042
:100F40000C12012606FA04F41688344013B10CB1D1
:100F5000012000E0002070BD10B50022002340F603
:100F60006A14A14200D100BF0A1201249440A3B226
:100F7000DC43048010BD0000003801400044004004
:100F800000480040004C00400050004008B50121DE
:100F90001020FFF793FD4FF40050ADF80000102033
:100FA0008DF8030003208DF802006946FA48FFF728
:100FB000C9FA4FF40051F848FFF771FB08BD7FB53F
:100FC0008EB0002500240026AA222146641C01A818
:100FD00042542146641C425402222146641C42545D
:100FE00000222146641C42549DF839202146641C8D
:100FF00042549DF838202146641C42549DF83D20FF
:101000002146641C42549DF83C202046611CCCB211
:1010100001A90A549DF841202046611CCCB201A9C7
:101020000A549DF840202046611CCCB201A90A5404
:101030009DF845202046611CCCB201A90A549DF8B8
:1010400044202046611CCCB201A90A549DF85920C5
:101050002146601CC4B201A842549DF85820204685
:10106000611CCCB201A90A549DF85D202046611C88
:10107000CCB201A90A549DF85C202046611CCCB278
:1010800001A90A549DF861202046611CCCB201A937
:101090000A549DF860202046611CCCB201A90A5474
:1010A0009DF865202046611CCCB201A90A549DF828
:1010B00064202046611CCCB201A90A549DF8692025
:1010C0002046611CCCB201A90A549DF86820204634
:1010D000611CCCB201A90A54201FC0B28DF80700D0
:1010E00000BF05E001A8405D3044C6B2681CC5B22F
:1010F000A542F7DB2046611CCCB201A90E540025A5
:101100000DE001A8415DA548FFF778FE00BF402132
:10111000A248FFF7E1FE0028F9D0681CC5B2A5423D
:10112000EFDB12B070BD2DE9F0479CB081460E4652
:1011300017460024642103A804F09CFC00200190C1
:1011400080460025AA222146641C03A84254214659
:10115000641C425401222146641C42540022214650
:10116000641C42548E49484606F040FC824606F014
:10117000D5FB00B202909DF809202146641C03A80B
:1011800042549DF808202146641C4254844930464C
:1011900006F02CFC824606F0C1FB00B202909DF8DE
:1011A00009202146641C03A842549DF808202146CA
:1011B000601CC4B203A842547949384606F016FCB4
:1011C000824606F0ABFB00B202909DF80920204653
:1011D000611CCCB203A90A549DF808202046611C6A
:1011E000CCB203A90A549DF807202146601CC4B262
:1011F00003A842549DF806202046611CCCB203A9E6
:101200000A549DF805202046611CCCB203A90A545B
:101210009DF804202046611CCCB203A90A54201F6B
:10122000C0B28DF80F0000BF06E003A8405D404447
:1012300000F0FF08681CC5B2A542F6DB2046611C21
:10124000CCB203A901F80080002505E003A9485DA0
:1012500000F01BF9681CC5B2A542F7DB1CB0BDE865
:10126000F08790B00024A1460020069007900890D7
:10127000FEF7F9FF00F0CAF8FFF788FE4FF40051BF
:101280004548FFF70CFA002008900790069006A842
:1012900004F01AFB06A807C8FFF745FF089806F0F8
:1012A000EDF9074600223F4B05F0D8FE054605F054
:1012B000F9FB089003F043FC03F0D5F881466AE09F
:1012C000601C84B2642C05DA4FF400513248FFF7F9
:1012D000E8F90AE0C82C05DA4FF400512E48FFF770
:1012E000DEF902E0C82C00D10024B9F1000F52D180
:1012F00009A80AAB0BAA0CA900900EA803F01BF9D1
:10130000002848D1DDE9081006F0E4F909900998B1
:1013100006F0B4F905460022234B05F09DFF0CD2E0
:10132000099806F0ABF907460022204B06F0BCF8FE
:10133000054605F0B7FB099014E0099806F09EF900
:10134000054600221A4B05F04DFE0BD2099806F017
:1013500095F907460022154B05F0D6FB054605F02A
:10136000A1FB0990DDE909210B98FFF7DCFE0021C4
:10137000BDF93400CDE9010103910491BDF93200BA
:101380000090BDF93030BDF93C20BDF93A10BDF9EF
:101390003800FFF714FE93E70010014000380140C9
:1013A0000000C8420000F0BF008066400080764028
:1013B000008066C0014605E0002001E0421CD0B27A
:1013C0000A28FBDB0A00A1F10101F5D1704710B535
:1013D000044603E04FF47A70FFF7ECFF2000A4F11D
:1013E0000104F7D110BD00BF0100A0F10100FBD145
:1013F0007047704700BFFEE700BFFEE700BFFEE793
:1014000000BFFEE7704770477047704700B585B072
:10141000012144F20400FFF751FB4FF40070ADF8D6
:10142000100018208DF8130003208DF8120004A975
:101430006A48FFF787F84FF48060ADF81000042089
:101440008DF8130004A96548FFF77CF84FF4E130EC
:1014500000900020ADF80400ADF80600ADF80800DB
:10146000ADF80C000C20ADF80A0069465C48FFF7A7
:10147000CCFB012240F225515948FFF75EFC0121C7
:101480005748FFF74EFC05B000BD10B50446214695
:101490005348FFF7B3FC00BF40215148FFF71CFD44
:1014A0000028F9D010BD2DE9F0410446642094FBDA
:1014B000F0F0C5B2642094FBF0F100FB11400A216A
:1014C00090FBF1F0C6B20A2094FBF0F100FB114052
:1014D000C7B205F13001C8B2FFF7D7FF06F13001FE
:1014E000C8B2FFF7D2FF07F13001C8B2FFF7CDFF56
:1014F000BDE8F0812DE9F047044642F2107094FBFC
:10150000F0F0C5B242F2107094FBF0F100FB114014
:101510004FF47A7190FBF1F0C6B2084694FBF0F1FB
:1015200000FB1140642190FBF1F0C7B2642094FBF2
:10153000F0F100FB11400A2190FBF1F000F0FF08F0
:101540000A2094FBF0F100FB114000F0FF0905F1C7
:101550003001C8B2FFF799FF06F13001C8B2FFF7BA
:1015600094FF07F13001C8B2FFF78FFF08F1300197
:10157000C8B2FFF78AFF09F13001C8B2FFF785FF53
:10158000BDE8F08770B505462C4603E02078FFF7EC
:101590007CFF641C20780028F8D170BD10B504468B
:1015A000C4F30720FFF771FFE0B2FFF76EFF10BD35
:1015B00008B54FF4A060FEF7F7FE25208DF8000077
:1015C00002208DF8010000208DF8020001208DF826
:1015D00003006846FEF7EDFE08BD0000000801406C
:1015E000003801406FF07F404FF0E021486100205B
:1015F000886101200861704730B501464FF0E02056
:101600008369046904F4803028B16FF07F4508686D
:101610002844C21A01E00868C21A0B6003488242DB
:1016200001D9002030BD1046FCE77047A0860100BC
:1016300038B50446FC4890F82400C0B114B102202B
:10164000009001E000200090F74A1268517CF64AB1
:10165000526810786B46012203F0A7FB10B14FF0DF
:10166000FF3038BD9DF80010EF48417423E0EE488C
:10167000807A10B94FF0FF30F3E724B1EA48407C9C
:1016800008B10020EDE714B10120009001E0002036
:101690000090E54A1268517CE34A526810786B4624
:1016A000012203F082FB10B14FF0FF30D9E79DF823
:1016B0000010DD4841740020D3E738B5002419E05C
:1016C000D9480068407BA04204D0D7480068007E1B
:1016D000A04200D10CE0D449496808786B46012249
:1016E000214603F0B1FB10B14FF0FF3038BD00BF11
:1016F000601CC4B2CC4840680079A042E0DC002005
:10170000F4E770B504460D46C7480068407BA04228
:1017100004D0C5480068007EA04202D14FF0FF30DF
:1017200070BDC14840680079A04202DC4FF0FF3034
:10173000F6E7BD49496808782B460122214603F0A7
:1017400083FBEDE738B50446B74890F82300A04284
:1017500001D1002038BD14B13020009001E00020FC
:101760000090B148807C20B19DF8000040F002005C
:101770000090AD4890F8220020B19DF8000040F0A4
:1017800080000090A84A1268D17DA74A526810785C
:101790006B46012203F009FB10B14FF0FF30D9E78F
:1017A000A14880F823400020D4E71CB5044604F08B
:1017B000700010B10120019005E014B100200190EB
:1017C00001E040200190984A1268517D964A526883
:1017D000107801AB012203F0E8FA20B10021924811
:1017E0008172481E1CBD9DF8040020F040018E4807
:1017F00001730020019004F0400020B99DF804001E
:1018000040F00400019004F0200020B99DF804008D
:1018100040F00200019004F0100020B99DF804008F
:1018200040F00100019004F0080020B99DF8040088
:1018300040F0380001907C4A1268917D7A4A5268E3
:10184000107801AB012203F0B0FA20B100217648F4
:101850008172481EC6E724B1082C02D00020FFF791
:1018600071FF714A126811796F4A526810786B469D
:10187000012203F0E9FA10B14FF0FF30B2E704F0B3
:10188000010038B1112001909DF8000040F02000C7
:10189000009006E0102001909DF8000020F020004C
:1018A0000090614890F8240028B19DF8000040F0B5
:1018B0008000009004E09DF8000020F0800000907F
:1018C000594A126892F82610574A5268107801ABAC
:1018D000012203F06AFA10B14FF0FF3082E7524A5A
:1018E00012681179504A526810786B46012203F051
:1018F0005CFA10B14FF0FF3074E74B48847200215E
:1019000001753220FFF763FD00206BE738B5044610
:101910002CB14548C089A04201DB642C02DD4FF0A8
:10192000FF3038BD4048C08990FBF4F0401EC0B283
:1019300000903D4A126892F824103B4A5268107891
:101940006B46012203F031FA10B14FF0FF30E8E7A7
:101950003548C1899DF80000401C91FBF0F081B230
:10196000314801850020DCE738B504462E48807CEC
:10197000A04201D1002038BD002C46D02A4A12686E
:101980001179294A526810786B46012203F05CFAFB
:1019900010B14FF0FF30EEE79DF8000020F020007E
:1019A0000090214A126811791F4A526810786B46DC
:1019B000012203F0FAF910B14FF0FF30DBE703200A
:1019C000FFF705FD02200090174890F8220020B193
:1019D0009DF8000040F080000090134890F823002C
:1019E00020B19DF8000040F0300000900E4A1268CF
:1019F000D17D0D4A526810786B46012203F0D5F96B
:101A0000002854D04FF0FF30B5E7074A126811792B
:101A1000054A526810786B46012203F015FA28B186
:101A20004FF0FF30A7E7000028000020FE48807A32
:101A300000F0010028B19DF8000040F02000009067
:101A400004E09DF8000020F020000090F64A1268A3
:101A50001179F54A526810786B46012203F0A5F916
:101A600010B14FF0FF3086E70320FFF7B0FCEE48DF
:101A700090F8220010B18020009001E0002000903A
:101A8000E94890F8230020B19DF8000040F03000B4
:101A90000090E54A1268D17DE34A526810786B469F
:101AA000012203F082F910B14FF0FF3063E7DE4806
:101AB000847400205FE738B50120FFF755FF0C2440
:101AC0000EE06B4601220021204603F0BDF90546D9
:101AD00025B99DF80000482800D103E0601CC4B27D
:101AE0000F2CEEDD00BF0F2C05DDD0A0FFF74AFD67
:101AF0004FF0FF3038BDCC4880F82A4010208DF8D8
:101B00000000C94991F82A006B4601220A2103F01E
:101B10004CF910B14FF0FF30ECE70120FFF757FC14
:101B20001F208DF80000C04991F82A006B46012261
:101B30000A2103F03AF910B14FF0FF30DAE7012043
:101B4000FFF745FCB84991F82A006B4603221021A3
:101B500003F07AF910B14FF0FF30CBE79DF80000A9
:101B60008030B14988859DF801108031AE48C1852B
:101B70009DF802108031018610208DF80000AA49DE
:101B800091F82A006B4601220A2103F00EF910B1E8
:101B90004FF0FF30AEE70120FFF719FC0020FFF700
:101BA000E3FE40208DF800009F4A1268917E9E4A15
:101BB000526810786B46012203F0F7F810B14FF02D
:101BC000FF3097E7984890F82A0040F080008DF8A1
:101BD0000000954A1268917F934A526810786B46CC
:101BE000012203F0E2F810B14FF0FF3082E702204B
:101BF0008DF800008C4A1268D17F8B4A52681078A9
:101C00006B46012203F0D1F810B14FF0FF3071E7BD
:101C100088208DF80000844A126892F82010824AC9
:101C2000526810786B46012203F0BFF810B14FF0F4
:101C3000FF305FE77C4890F82A008DF800007A4A70
:101C4000126892F82110784A526810786B46012287
:101C500003F0ABF810B14FF0FF304BE70A208DF8DE
:101C60000000714A126892F822106F4A5268107888
:101C70006B46012203F099F810B14FF0FF3039E7BD
:101C800081208DF80000684A126892F82310664A95
:101C9000526810786B46012203F087F810B14FF0BC
:101CA000FF3027E711208DF800005F4A126892F894
:101CB00026105D4A526810786B46012203F075F8D1
:101CC00010B14FF0FF3015E703208DF80000564AA1
:101CD000126892F82710544A526810786B46012215
:101CE00003F063F810B14FF0FF3003E7002001E785
:101CF00008B54D48807A10B94FF0FF3008BD00207C
:101D00000090494A1268517C474A526810786B46E5
:101D1000012203F04AF810B14FF0FF30EEE7424ADB
:101D200012685179404A526810786B46012203F0DC
:101D30003CF810B14FF0FF30E0E73B4A12681179F0
:101D4000394A526810786B46012203F02EF810B120
:101D50004FF0FF30D2E7344890F82400002853D0E9
:101D60000C200090304A126811792F4A526810787E
:101D70006B46012203F019F810B14FF0FF30BDE7B8
:101D80003220FFF724FBC02000902748807A00F023
:101D9000010020B19DF8000040F020000090224A90
:101DA00012681179204A526810786B46012202F0BD
:101DB000FCFF10B14FF0FF30A0E71B48407C10B192
:101DC0000220009001E000200090174A1268517C28
:101DD000154A526810786B46012202F0E6FF10B1F6
:101DE0004FF0FF308AE7002000900F4A12685179C7
:101DF0000D4A526810786B46012202F0D6FF002887
:101E000061D04FF0FF3079E704200090064A126855
:101E10001179054A526810786B46012202F0C5FF1D
:101E200070B14FF0FF3069E728000020436F6D70FC
:101E3000617373206E6F7420666F756E642E0A0076
:101E4000F748807C20B9F648807A00F0010010B98C
:101E50004020009001E060200090F14A1268117962
:101E6000EF4A526810786B46012202F09EFF10B1D3
:101E70004FF0FF3042E73220FFF7A9FAE848407CF4
:101E800010B10120009001E000200090E44A1268A7
:101E9000517CE34A526810786B46012202F085FFBC
:101EA00010B14FF0FF3029E7DD4A12685179DC4A62
:101EB00052681078DA4B1033012202F076FF10B12D
:101EC0004FF0FF301AE7002018E770B504460026EF
:101ED00024F00104D24890F8240008B1002070BD1D
:101EE000CF48807A10B94FF0FF30F8E7CC48057C36
:101EF000807A2040CA4908740846007CA04202D07B
:101F00004FF0FF3600E0002614B9C548007D18B137
:101F10000120FFF78DFB02E00020FFF789FB3CB1B9
:101F2000FFF7E6FE20B1BE4805744FF0FF30D6E75C
:101F30003046D4E738B50446B948807A10B94FF036
:101F4000FF3038BDBC2C02DB0120009015E0622C74
:101F500002DB0220009010E02A2C02DB032000901C
:101F60000BE0142C02DB0420009006E00A2C02DBBC
:101F70000520009001E006200090A948C07A9DF855
:101F80000010884201D10020DBE7A54A1268917851
:101F9000A34A526810786B46012202F006FF10B186
:101FA0004FF0FF30CDE79DF800109D48C172002032
:101FB000C7E738B50446282C02DD4FF0FF3038BDA6
:101FC000DCB90020FFF7BEFB00208DF800000720E1
:101FD0008DF80100924A1268517D914A526810783A
:101FE0006B46022202F0E1FE10B14FF0FF30E6E74F
:101FF00000218B4801750020E1E70120FFF7A2FBDB
:10200000012C03D102208DF8000033E0022C03D113
:1020100003208DF800002DE0052C03DC04208DF852
:10202000000027E00A2C03DC05208DF8000021E0E9
:10203000142C03DC06208DF800001BE0282C03DCA8
:1020400007208DF8000015E0502C03DC08208DF8E7
:1020500000000FE0A02C03DC09208DF8000009E04F
:10206000B4F5A07F03DC0A208DF8000002E00B200D
:102070008DF800006A4A1268517A694A52681078ED
:102080006B46012202F091FE10B14FF0FF3096E74F
:1020900020208DF80000624A1268517D604A526823
:1020A00010786B46012202F080FE10B14FF0FF3035
:1020B00085E708215A4881720021017301210175C9
:1020C0000020FFF702FF002079E738B504465448A6
:1020D000807A10B94FF0FF3038BD514890F8240095
:1020E00010B14FF0FF30F7E74D48007D50B134B1EB
:1020F000282C04DCE0B2FFF75CFF0020ECE70020B6
:10210000FFF757FF042C01DA042404E0B4F57A7FCA
:1021100001DD4FF47A744FF47A7090FBF4F0401EB6
:10212000C0B200903E4A126851783D4A5268107819
:102130006B46012202F039FE10B14FF0FF30CBE7C1
:102140009DF80000401C4FF47A7191FBF0F081B2D1
:102150003348C1810146098D642902DA0146098D9F
:1021600000E064210846FFF7D1FB2D49C9894810DA
:10217000FFF7E0FE0020AFE738B504462848807A34
:1021800010B94FF0FF3038BD022C06D0042C07D018
:10219000082C08D0102C0CD108E0002000900BE097
:1021A0000820009008E01020009005E01820009022
:1021B00002E04FF0FF30E6E700BF1948407A9DF893
:1021C0000010B0EBE10F01D10020DCE7144A1268E7
:1021D000D179134A526810786B46012202F0E5FD6E
:1021E00010B14FF0FF30CEE79DF80000C1100C4851
:1021F00041720020C7E738B504460948807A10B913
:102200004FF0FF3038BDFA2C0CD0B4F5FA7F0CD06B
:10221000B4F57A7F0CD0B4F5FA6F0FD10BE0000063
:1022200028000020002000900BE00820009008E02B
:102230001020009005E01820009002E04FF0FF30E1
:10224000E0E700BFFE48007A9DF80010B0EBE10F18
:1022500001D10020D6E7FA4A12689179F84A52680B
:1022600010786B46012202F0A0FD10B14FF0FF3054
:10227000C8E79DF80000C010F14908720020C1E7CE
:102280001CB580208DF80000ED4A1268517DEC4AA3
:10229000526810786B46012202F087FD10B14FF0B2
:1022A000FF301CBD6420FFF792F800208DF800007D
:1022B000E34A1268517DE24A526810786B46012267
:1022C00002F073FD10B14FF0FF30EAE748208DF8BF
:1022D0000000DB4A1268117AD94A526810786B46BE
:1022E000012202F062FD10B14FF0FF30D9E7FF216B
:1022F000D3488172FF20D2490872FF21D048417231
:10230000C1724FF6FF71C181FF21017481744FF6D4
:10231000FF7101850121017380F82210002180F8EE
:1023200023104175017516300160416081601638D7
:1023300080F8241080F82510C1844FF4FA60FFF76C
:102340005AFF10B14FF0FF30ABE70220FFF714FF48
:1023500010B14FF0FF30A4E72A20FFF7EBFD10B1DA
:102360004FF0FF309DE73220FFF7AFFE10B14FF086
:10237000FF3096E70020FFF7A8FD10B14FF0FF30C7
:102380008FE7FFF798FB0A20FFF7C0FA10B14FF074
:10239000FF3086E70020FFF708FA002081E77CB5D0
:1023A00004460D46A648807A00F0700010B94FF040
:1023B000FF307CBDA24A1268917BA14A5268107816
:1023C0006B46062202F040FD10B14FF0FF30F0E7FF
:1023D0009DF801009DF8001040EA012000B2208025
:1023E0009DF803009DF8021040EA012000B26080D1
:1023F0009DF805009DF8041040EA012000B2A0807D
:1024000015B12846FFF711F90020D2E77CB5044644
:102410000D468B48807A00F0080010B94FF0FF306D
:102420007CBD874A1268D17B854A526810786B461A
:10243000062202F009FD10B14FF0FF30F0E79DF8E1
:1024400001009DF8001040EA012000B220809DF8B4
:1024500003009DF8021040EA012000B260809DF860
:1024600005009DF8041040EA012000B2A08015B1DB
:102470002846FFF7DAF80020D2E72DE9FE4F05469F
:102480000C466F48807A18B94FF0FF30BDE8FE8FD8
:102490006B4A1268117C6A4A5268107802AB0222B9
:1024A00002F0D2FC10B14FF0FF30EFE79DF80900C9
:1024B0009DF8081040EA012006B214B12046FFF74B
:1024C000B4F85F494968C88805F07CFA5C49019016
:1024D0004968B1F9080005F05DFA8346304605F019
:1024E00059FA5946009005F04DFB8246019905F0D6
:1024F00053F98146534905F0EDF880464FF08F417E
:1025000005F074FA074605F009FA28600020BDE7D7
:1025100010B588B004461CB94FF0FF3008B010BDAC
:10252000206828B9606818B9A06808B90020F5E7E4
:1025300043494968087806AB0322114602F084FC3F
:1025400010B14FF0FF30E9E79DF81800082101EBCA
:10255000201000F00F00ADF800009DF8190001EB0D
:10256000201000F00F00ADF802009DF81A0001EBFA
:10257000201000F00F00ADF8040020684100BDF904
:102580000000403091FBF0F000B2ADF81000606840
:102590004100BDF90200403091FBF0F000B2ADF80F
:1025A0001200A0684100BDF90400403091FBF0F03A
:1025B00000B2ADF8140022494968087806AB06223B
:1025C000114602F041FC10B14FF0FF30A6E79DF834
:1025D00019009DF8181040EA012000B2ADF808007B
:1025E0009DF81B009DF81A1040EA012000B2ADF8DA
:1025F0000A009DF81D009DF81C1040EA012000B261
:10260000ADF80C00BDF81000BDF80810084400B289
:10261000ADF81000BDF81200BDF80A10084400B271
:10262000ADF81200BDF81400BDF80C10084400B25B
:10263000ADF81400BDF81000000A8DF8180003E092
:102640002800002000000C42BDF81000C0B28DF838
:102650001900BDF81200000A8DF81A00BDF812002A
:10266000C0B28DF81B00BDF81400000A8DF81C00E4
:10267000BDF81400C0B28DF81D00FC494968087807
:1026800006AB0622114602F090FB10B14FF0FF306E
:1026900044E7002042E70146F448007A30B10128BF
:1026A00007D0022809D003280FD10AE0FA200880B9
:1026B0000EE04FF4FA7008800AE04FF47A70088058
:1026C00006E04FF4FA60088002E00020088000BFB6
:1026D00000BF002070470146E448407A30B101282D
:1026E00007D0022808D003280CD108E00220087087
:1026F0000BE00420087008E00820087005E01020B6
:10270000087002E04FF0FF30704700BFD748C07C30
:1027100018B108784006000E08700020F4E7014662
:10272000D248C07A082817D2DFE800F01704070A59
:102730000D101318BC20088013E06220088010E000
:102740002A2008800DE0142008800AE00A20088072
:1027500007E00520088004E000BF00BF00200880DB
:1027600000BF00BF002070470146C04890F8240019
:1027700010B14FF0FF307047BC48C089088000207E
:10278000F9E70146B948008D0880002070470146EE
:10279000B648007A30B1012807D0022808D00328B3
:1027A0000CD108E0B24808600BE0B248086008E0CD
:1027B000B148086005E0B148086002E04FF0FF3022
:1027C000704700BF0020FBE70146A848407A30B1BF
:1027D000012808D002280AD0032810D10BE04FF4BA
:1027E000804008800EE041F69C7008800AE04FF4BB
:1027F0008050088006E04FF40060088002E04FF04F
:10280000FF30704700BF9948C07C10B10888401065
:1028100008800020F5E701469448007C08700020FD
:10282000704701469148807A10B10120087001E09C
:10283000002008700020704738B504468B48807A25
:1028400010B94FF0FF3038BD884A1268917C874A32
:10285000526810786B46022202F0F6FA10B14FF07F
:10286000FF30F0E79DF801009DF8001040EA0120DC
:1028700000B220800020E6E72DE9FE4F074688469B
:1028800092461D46DDF830B000260024774890F8C7
:10289000240010B1601EBDE8FE8F00202870734830
:1028A000807A10B94FF0FF30F5E77048007C10B91E
:1028B0004FF0FF30EFE76D48007C00F0400008B1BA
:1028C000B01CC6B26948007C00F0200008B1B01C02
:1028D000C6B26648007C00F0100008B1B01CC6B259
:1028E0006248007C00F0080008B1B01DC6B25F4A23
:1028F0001268117B5D4A526810786B46022202F022
:10290000A3FA10B14FF0FF30C5E79DF801009DF824
:10291000001040EA0129B14501DA0020BBE7534825
:1029200040684088B9EB600F17DD504A1268D17CCF
:102930004E4A526810786B46012202F085FA10B1B7
:102940004FF0FF30A7E79DF8000000F0100020B125
:10295000FFF7CEF96FF001009DE75046FEF765FEE8
:10296000424A1268517B414A526810786B4632469F
:1029700002F06AFA10B14FF0FF308CE799FBF6F0E5
:10298000401E8BF8000000202870B4422AD037483F
:10299000007C00F0080028B3601C1DF800001DF842
:1029A000041040EA012000B2A8F80000E01C1DF865
:1029B0000010A01C1DF8000041EA002000B2A8F899
:1029C0000200601D1DF80010201D1DF8000041EAE6
:1029D000002000B2A8F80400287840F00800287011
:1029E000A01D84B2B44213D02048007C00F0400007
:1029F00070B1601C1DF800001DF8041040EA0120B1
:102A000000B23880287840F040002870A01C84B2C2
:102A1000B44213D01548007C00F0200070B1601C57
:102A20001DF800001DF8041040EA012000B2788073
:102A3000287840F020002870A01C84B2B44213D043
:102A40000A48007C00F0100070B1601C1DF8000006
:102A50001DF8041040EA012000B2B880287840F048
:102A600010002870A01C84B2002014E72800002069
:102A70000000034300008342333303423333834176
:102A8000F8B504460F461646FE4890F8240010B9E3
:102A90004FF0FF30F8BDFB48807A10B94FF0FF309F
:102AA000F8E7F84A1268117BF64A526810786B46CC
:102AB000022202F0C9F910B14FF0FF30EAE79DF8A9
:102AC00001009DF8001040EA0125A54203DA00202C
:102AD0003070401EDEE7EB4840684088B5EB600F81
:102AE00017DDE84A1268D17CE64A526810786B46D6
:102AF000012202F0A9F910B14FF0FF30CAE79DF8AA
:102B0000000000F0100020B1FFF7F2F86FF00100B4
:102B1000C0E7E2B2DB4B1B68597BDA4B5B68187885
:102B20003B4602F091F910B14FF0FF30B2E795FB50
:102B3000F4F0401E30700020ACE70146D14880F828
:102B40002210002070472DE9F04F87B005460C4653
:102B5000914601208DF8100000208DF81100C94A1F
:102B60001268517DC74A5268107804AB022202F005
:102B70001CF920B14FF0FF3007B0BDE8F08FC8203E
:102B8000FEF725FC00208DF81000BE4A1268517C2B
:102B9000BC4A5268107804AB012202F006F910B169
:102BA0004FF0FF30E8E7B74A12685179B54A5268EA
:102BB000107804AB012202F0F8F810B14FF0FF30AA
:102BC000DAE7B04A1268517DAE4A5268107804AB19
:102BD000012202F0EAF810B14FF0FF30CCE7A94A29
:102BE0001268917EA74A5268107804AB012202F065
:102BF000DCF810B14FF0FF30BEE7A24A126811793D
:102C0000A04A5268107804AB012202F0CEF810B14D
:102C10004FF0FF30B0E70C208DF81000994A126891
:102C20001179984A5268107804AB012202F0BDF87D
:102C300010B14FF0FF309FE70F20FEF7C8FB91481F
:102C4000406B407A8DF810008E4A126891788D4A58
:102C50005268107804AB012202F0A7F810B14FF0CF
:102C6000FF3089E78748406B007A8DF81000854A6D
:102C700012685178834A5268107804AB012202F03E
:102C800094F810B14FF0FF3076E7B9F1000F07D09C
:102C90007C48406B807A40F0E0008DF8100004E042
:102CA0007848406B807A8DF81000764A12689179E6
:102CB000744A5268107804AB012202F076F810B121
:102CC0004FF0FF3058E7B9F1000F07D06D48406B67
:102CD000C07A40F0E0008DF8100003E06A48C07A46
:102CE0008DF81000674A1268D179664A52681078E8
:102CF00004AB012202F059F810B14FF0FF303BE76E
:102D0000B9F1000F02D0C820FEF761FB40208DF81A
:102D100010005C4A126811795A4A5268107804AB64
:102D2000012202F042F810B14FF0FF3024E7782082
:102D30008DF81000534A12685179524A526810783F
:102D400004AB012202F031F810B14FF0FF3013E76D
:102D50004D498889FEF73BFB00208DF81000494A59
:102D600012685179474A5268107804AB012202F088
:102D70001CF810B14FF0FF30FEE6424A1268117B9A
:102D8000404A5268107804AB022202F05DF810B19C
:102D90004FF0FF30F0E69DF811009DF8101040EA6A
:102DA000012B0C209BFBF0F0C6B20020A8606860ED
:102DB0002860A0606060206082466BE0314A126843
:102DC000517B304A5268107804AB0C2202F03CF878
:102DD00010B14FF0FF30CFE69DF811009DF81010B4
:102DE00040EA012000B2ADF808009DF813009DF8FC
:102DF000121040EA012000B2ADF80A009DF815005B
:102E00009DF8141040EA012000B2ADF80C00BDF9A5
:102E10000810206808442060BDF90A106068084462
:102E20006060BDF90C10A0680844A0609DF8170010
:102E30009DF8161040EA012000B2ADF800009DF8A0
:102E400019009DF8181040EA012000B2ADF8020008
:102E50009DF81B009DF81A1040EA012000B2ADF861
:102E60000400BDF90010286808442860BDF902106C
:102E7000686808446860BDF90410A8680844A86040
:102E800004E0000028000020987D00080AF10100FD
:102E900000F0FF0AB24591DBF848D0F800C028687E
:102EA000C117090441EA104107046246002338466D
:102EB00002F088FD32460023CDE9020102F082FDD6
:102EC0002860EE48D0F800C06868C117090441EADC
:102ED0001041070462460023384602F073FD324673
:102EE0000023CDE9020102F06DFD6860E348D0F8EF
:102EF00000C0A868C117090441EA104107046246EE
:102F00000023384602F05EFD32460023CDE902017F
:102F100002F058FDA860D948D0F804C02168C8174D
:102F2000000440EA11480F04624600233846414637
:102F300002F048FD32460023CDE9020102F042FDD5
:102F40002060CE48D0F804C06068C117090441EA87
:102F50001041070462460023384602F033FD324632
:102F60000023CDE9020102F02DFD6060C348D0F8D6
:102F700004C0A068C117090441EA10410704624671
:102F80000023384602F01EFD32460023CDE902013F
:102F900002F018FDA060A068002804DDA068A0F57C
:102FA0008030A06003E0A06800F58030A0600020C1
:102FB000E2E538B50446B24890F82400A04201D1B9
:102FC000002038BD24B3AE4890F8250010B94FF06A
:102FD000FF30F6E70020FEF72BFB0020FEF7C4FCD5
:102FE000A749C88CFFF771F800200090A4494968F0
:102FF00008786B460122232101F0D7FE0121A04869
:1030000080F824100120FEF713FBFEF771FE13E099
:103010000020FEF70DFB9A48007C00909849496813
:1030200008786B460122232101F0BFFE002194485D
:1030300080F82410FEF75CFE0020C2E72DE9F04185
:1030400086B0074688468E4890F8240020B10020BC
:10305000FFF7AFFF012400E0002403A8FFF71BFBEC
:1030600005A8FFF738FB01A8FFF759FB02A8FFF7F7
:103070007BFB8348867A04A8FFF7CDFB00224146FC
:103080003846FFF760FD0725FF207D490872FF21C4
:103090007B484172C1724FF6FF71C181FF2181727D
:1030A000017401210173BDF80C00FFF7A4F89DF82D
:1030B0001400FFF761F8BDF80400FEF73BFFBDF810
:1030C0000800FFF702F83046FEF76FFB9DF810008E
:1030D000FEF7FBFE14B10120FFF76BFF284606B098
:1030E000BDE8F081F8B504460D46164616B94FF016
:1030F000FF30F8BD6248807A10B94FF0FF30F8E732
:1031000020128DF80000E0B28DF801009DF801005A
:1031100028445B4949684989884202DD4FF0FF3005
:10312000E7E7574A1268D17E554A526810786B46D5
:10313000022201F03AFE10B14FF0FF30D9E7EAB2B7
:103140004F4B1B68197E4E4B5B681878334601F075
:103150002CFE10B14FF0FF30CBE70020C9E7F8B5E7
:1031600004460D46164616B94FF0FF30F8BD4448E8
:10317000807A10B94FF0FF30F8E720128DF8000088
:10318000E0B28DF801009DF8010028443C494968EF
:103190004989884202DD4FF0FF30E7E7384A12687C
:1031A000D17E374A526810786B46022201F0FDFD4D
:1031B00010B14FF0FF30D9E7EAB2314B1B68197EEE
:1031C0002F4B5B681878334601F03EFE10B14FF08C
:1031D000FF30CBE70020C9E72DE9F04385B0054675
:1031E0000E4690469946264890F8250020B14FF0AB
:1031F000FF3005B0BDE8F08316B94FF0FF30F8E7B7
:10320000002423E0281B102801DD102000E0281BEB
:1032100087B2321939462046FFF764FF10B14FF0EC
:10322000FF30E6E701AA39462046FFF798FF10B1C4
:103230004FF0FF30DDE730193A4601A902F0E6FB16
:1032400010B16FF00100D4E7E01984B2AC42D9DBD1
:103250004FEA28208DF8000008F0FF008DF80100EB
:10326000074A1268517F064A526810786B4602225C
:1032700001F09BFD30B14FF0FF30BAE7987D0008B8
:10328000280000200121D64880F82510A0F82690BB
:103290000020AEE70146D24890F8240008700020D4
:1032A00070473EB504460D46CD48807A00F00100D7
:1032B00010B94FF0FF303EBDC94A126892F828108D
:1032C000C74A526810786B46082201F0BDFD10B164
:1032D0004FF0FF30EFE79DF8000000F0010020B153
:1032E0009DF8000000F0020010B16FF00100E2E76D
:1032F0009DF8070000F0800010B16FF00200DAE7DF
:103300009DF801009DF8021040EA012000B22080E3
:103310009DF803009DF8041040EA012000B260808F
:103320009DF805009DF8061040EA012000B2A0803B
:10333000B4F90000AA49B1F92C104843001200B2B8
:103340002080B4F90210A648B0F92E0041430812BB
:1033500000B26080B4F90410A148B0F930004143D4
:10336000081200B2A08015B12846FEF75EF90020D1
:10337000A1E701469A48406880890880002070478C
:10338000F8B505460F461446002C72D0B5F57F7F80
:1033900001DDFF2605E0042D01DA012601E0C5F379
:1033A000870607B90127B4F5207F02DD4FF0FF3013
:1033B000F8BD8B48407D28BB894890F8240038B17F
:1033C0000020FFF7F6FD0121854880F8201003E07A
:1033D0000021834880F8201081481630FFF75BF900
:1033E0007F481830FFF777F97D481A30FFF797F9D3
:1033F0007B481C30FFF7B8F97948817A81771F3014
:10340000FFF709FA0020FEF713F900208DF80000FD
:103410008DF8010007208DF80200714A12681179B9
:103420006F4A526810786B46032201F0BEFC00B16F
:1034300093E08DF800606A4A1268917A684A52688F
:1034400010786B46012201F0B0FC00B185E0012C40
:1034500003D102208DF8000034E0022C03D10320B8
:103460008DF800002EE0052C04DC04208DF800000F
:1034700028E065E00A2C03DC05208DF8000021E03F
:10348000142C03DC06208DF800001BE0282C03DC44
:1034900007208DF8000015E0502C03DC08208DF883
:1034A00000000FE0A02C03DC09208DF8000009E0EB
:1034B000B4F5A07F03DC0A208DF8000002E00B20A9
:1034C0008DF80000464A1268517A454A52681078D1
:1034D0006B46012201F069FC00B13EE0C0208DF88E
:1034E00000003F4A1268117D3D4A526810786B46D1
:1034F000012201F05AFC00B12FE020208DF80000DD
:10350000374A1268517D364A526810786B4601225C
:1035100001F04BFC00B120E040208DF80000304A63
:103520001268517C2E4A526810786B46012201F0D5
:103530003CFC00B111E0012129484175002037E72A
:10354000274A1632002103E0505C00B105E0491C17
:103550000C29F9D34FF0FF302AE7FF2020490872E9
:10356000FF211F484172C1724FF6FF71C181FF21D7
:1035700081720174012101730146887FFEF715F9FC
:103580001749C88AFEF737FE1549087EFEF7F4FD95
:103590001349488BFEF7CEFC1149888BFEF795FD49
:1035A0000F49C87FFEF791FC0D4890F8200010B13C
:1035B0000120FFF7FEFC00208DF80000084A126889
:1035C000117D074A526810786B46012201F0EDFB2D
:1035D00000B1C2E70021024841750020E8E6000082
:1035E0002800002010B5C8234FF48062F74940F648
:1035F000F630FFF7F1FD10BD10B586B00446F4A01B
:1036000000680390F3A000680290F3A000680190A6
:10361000F2A00068009004F0030003A9085C8DF894
:10362000140003A8C4F3C101405C8DF8150003A881
:10363000C4F38111405C8DF8160004F0030002A968
:10364000085C8DF8100002A8C4F3C101405C8DF83D
:10365000110002A8C4F38111405C8DF8120005AA84
:10366000032140F22640FFF73DFD18B14FF0FF3037
:1036700006B010BD04AA032140F22A40FFF732FD34
:1036800010B14FF0FF30F3E70198059000980490D7
:1036900004F0040058B19DF8140040F001008DF8CA
:1036A00014009DF8100040F001008DF8100004F0A7
:1036B000200058B19DF8150040F001008DF815006C
:1036C0009DF8110040F001008DF8110004F48070A5
:1036D00058B19DF8160040F001008DF816009DF8D5
:1036E000120040F001008DF8120005AA03214FF4EA
:1036F0008860FFF7F7FC10B14FF0FF30B8E704AA7D
:10370000032140F23140FFF7EDFC10B14FF0FF30E4
:10371000AEE7B34804810020AAE71FB50446B048CD
:10372000007A00F0030054F820000190AC48007AC1
:1037300000F0040010B1019840420190A848007ABE
:10374000C0F3C10054F820000290A548007A00F0B0
:10375000200010B1029840420290A148007AC0F3C4
:10376000811054F8200003909D48008900F4807077
:1037700010B10398404203909A49019880FB0101DF
:10378000800F40EA810001909649029880FB011069
:10379000820042EA917002909249039880FB0110E6
:1037A000820042EA917003900198000E8DF80000AB
:1037B0000198000C8DF801000198000A8DF80200B4
:1037C0000198C0B28DF803006A4604214FF474706A
:1037D000FFF788FC18B14FF0FF3004B010BD02981D
:1037E000000E8DF800000298000C8DF80100029880
:1037F000000A8DF802000298C0B28DF803006A46F4
:1038000004214FF47570FFF76DFC10B14FF0FF30DD
:10381000E3E70398000E8DF800000398000C8DF884
:1038200001000398000A8DF802000398C0B28DF8D9
:1038300003006A4604214FF47670FFF753FCCCE78F
:1038400070B588B0064601A8FEF7BEFFBDF80400BB
:103850000021C90341EA5045C4036148007A00F0E1
:10386000030056F8200005905D48007A00F004003F
:1038700010B10598404205905948007AC0F3C10044
:1038800056F8200006905648007A00F0200010B14B
:103890000698404206905248007AC0F3811056F8CC
:1038A000200007904E48008900F4807010B10798FE
:1038B000404207900598C117A0FB042301FB043187
:1038C00000FB0510810041EA927005900698C1172F
:1038D000A0FB042301FB043100FB0510810041EA39
:1038E000927006900798C117A0FB042301FB0431D6
:1038F00000FB0510810041EA927007900598000EC8
:103900008DF808000598000C8DF809000598000A4C
:103910008DF80A000598C0B28DF80B000698000ECD
:103920008DF80C000698000C8DF80D000698000A22
:103930008DF80E000698C0B28DF80F000798000EA3
:103940008DF810000798000C8DF811000798000AF8
:103950008DF812000798C0B28DF8130002AA0C214E
:103960004FF42570FFF7BEFB08B070BD30B585B0D1
:1039700004461DA207CA02AB07C3C82C03DD4FF0E3
:10398000FF3005B030BDC82090FBF4F0401E85B27A
:10399000280A8DF80000E8B28DF801006A4602217D
:1039A00040F21620FFF79EFB10B14FF0FF30E8E722
:1039B00002AA0C2140F6C120FFF794FB10B14FF092
:1039C000FF30DEE7064884810020DAE7C07D00088A
:1039D0004CCD6C000CC92C0036567600264666008D
:1039E000D000002009E3CA02FEF2ABC4AAF1DFDF77
:1039F000BBAFDFDF0146FC488089088000207047AC
:103A00002DE9FC4706460F4606F0070010B1B7F552
:103A1000C86F03DD4FF0FF30BDE8FC87384603F088
:103A2000D1FF8146F14903F0B7FE80466846FEF7B4
:103A300052FE9DF80000022806D0042816D008285F
:103A400026D0102848D135E04FF08D41404603F094
:103A5000CDFF814603F07EFF84B2E549404603F086
:103A6000C5FF814603F076FF85B238E04FF08C4108
:103A7000404603F0BBFF814603F06CFF84B2DD4992
:103A8000404603F0B3FF814603F064FF85B226E0B1
:103A90004FF08B41404603F0A9FF814603F05AFFE7
:103AA00084B2D549404603F0A1FF814603F052FF9E
:103AB00085B214E04FF08A41404603F097FF8146FB
:103AC00003F048FF84B2CD49404603F08FFF8146A2
:103AD00003F040FF85B202E04FF0FF309CE700BFEB
:103AE00020128DF80400E0B28DF8050028128DF840
:103AF0000600E8B28DF8070006F00100A0B101AAA7
:103B000002214FF4EA70FFF7EDFA10B14FF0FF30E9
:103B100082E70DF1060202214FF49270FFF7E2FAFC
:103B200010B14FF0FF3077E706F00200A0B101AA14
:103B300002214FF4EC70FFF7D5FA10B14FF0FF30CF
:103B40006AE70DF1060202214FF49470FFF7CAFAFA
:103B500010B14FF0FF305FE706F00400A0B101AAFA
:103B600002214FF4EE70FFF7BDFA10B14FF0FF30B5
:103B700052E70DF1060202214FF49670FFF7B2FAF8
:103B800010B14FF0FF3047E7002045E738B5044655
:103B90000020009004F0010020B19DF8000040F0EA
:103BA0003000009004F0020020B19DF8000040F0C9
:103BB0000C00009004F0040020B19DF8000040F0DB
:103BC000030000906A4601214FF4A470FFF78AFABF
:103BD00038BD38B50446012C01DA012402E0042C7A
:103BE00000DD0424601EC0B200906A46012140F24C
:103BF0004F10FFF777FA38BD38B50446052094FB1F
:103C0000F0F085B228128DF80000E8B28DF80100BE
:103C10006A4602214FF4EF70FFF764FA38BD38B5F9
:103C20000446052094FBF0F085B228128DF80000C0
:103C3000E8B28DF801006A4602214FF4ED70FFF7FB
:103C400051FA38BDF8B505460E464FF47A7095FB2B
:103C5000F0F000FB06F4200E8DF80000200C8DF82B
:103C60000100200A8DF80200E0B28DF803006A46D8
:103C700004214FF4AE70FFF735FAF8BD38B50446AD
:103C8000052094FBF0F084B220128DF80000E0B221
:103C90008DF801006A4602214FF4AD70FFF722FA59
:103CA00038BD38B50446052094FBF0F084B22012EC
:103CB0008DF80000E0B28DF801006A4602214FF451
:103CC000AC70FFF70FFA38BD38B5044614B94FF0A1
:103CD000FF3038BD6A4604214FF45870FFF73FFAB1
:103CE00010B14FF0FF30F4E79DF8000000069DF89A
:103CF000011040EA01409DF8021040EA01209DF8C1
:103D00000310084320600020E3E738B50446200E86
:103D10008DF80000200C8DF80100200A8DF80200BB
:103D2000E0B28DF803006A4604214FF45870FFF7A3
:103D3000D9F938BD38B5044614B94FF0FF3038BD55
:103D40006A4604214FF47170FFF709FA10B14FF081
:103D5000FF30F4E79DF8000000069DF8011040EAEE
:103D600001409DF8021040EA01209DF8031008432D
:103D700000EB8000800020600020E0E738B50446BA
:103D80001420B4FBF0F4200E8DF80000200C8DF808
:103D90000100200A8DF80200E0B28DF803006A46A7
:103DA00004214FF47170FFF79DF938BD38B5044612
:103DB00064B120208DF8000028208DF8010030200B
:103DC0008DF8020038208DF8030004E0A3220421BE
:103DD000684601F047FE6A46042140F69E20FFF740
:103DE00081F9FDF785FF38BDD00000200000484371
:103DF000000040460000C045000040450000C044AF
:103E000038B5044664B1C0208DF80000C2208DF89A
:103E10000100C4208DF80200C6208DF8030004E0E4
:103E20008B220421684601F01DFE6A46042140F6FB
:103E30009820FFF757F9FDF75BFF38BD3EB5044604
:103E40006CB1FDA1D1E900208968CDE90020029183
:103E50006A4609214FF49760FFF744F93EBDF9A285
:103E6000D2E900109268CDE9010200916A46092169
:103E70004FF49760FFF736F9F0E73EB504460220AD
:103E80008DF80000CA208DF80100E3208DF80200B3
:103E900009208DF803006A4604216820FFF722F903
:103EA000A3208DF8000004F0400048B1C0208DF838
:103EB0000100C8208DF80200C2208DF8030006E042
:103EC000A3208DF801008DF802008DF8030004F4A2
:103ED000C07048B1C4208DF80400CC208DF80500D6
:103EE000C6208DF8060006E0A3208DF804008DF8AA
:103EF00005008DF80600A3208DF807008DF8080056
:103F00008DF809006A460A2140F6A720FFF7EAF873
:103F100004F0030018B120208DF8000002E0D82042
:103F20008DF800006A46012140F6B620FFF7DAF866
:103F300004F0200018B10120FFF780FF02E000200C
:103F4000FFF77CFF04F4C07008B304F4807060B124
:103F5000B2208DF800008B208DF80100B6208DF87E
:103F600002009B208DF803000BE0B0208DF80000CC
:103F700080208DF80100B4208DF8020090208DF88B
:103F800003006A46042140F6A220FFF7ABF804F0D4
:103F9000010020B3F8208DF800006A4601214FF49B
:103FA0000B60FFF79FF8FA210720FFF729FD072094
:103FB000FFF7ECFD0120FFF70CFE6420FFF71CFE6D
:103FC0004FF4FA70FFF72BFEC821A148FFF73AFE25
:103FD0002820FFF753FE0A20FFF763FE08E0D820F1
:103FE0008DF800006A4601214FF40B60FFF77AF864
:103FF00004F0020018B1D9208DF8000002E0D820AA
:104000008DF800006A46012140F23D70FFF76AF822
:1040100004F0040018B10120FFF7F2FE02E00020D6
:10402000FFF7EEFE04F0100018B10120FFF7BEFE0E
:1040300002E00020FFF7BAFE44F0080085494881FD
:10404000FDF756FE00208349887304F0400018B144
:104050000846807B801D887304F4C07020B17D48C1
:10406000807B801D7B49887304F0140020B179485F
:10407000807B10307749887304F0030020B17548C5
:10408000807B001D7349887300203EBD0146714846
:1040900040890880002070472DE9F0410446E0780F
:1040A00000F0C006E07800F03F05607800F0010005
:1040B00098B1EF102846E91705EB5171C910A5EB2F
:1040C000C101491C01F0FF086248006820B1614845
:1040D000414602683846904700BF607800F008000B
:1040E00030B15C48406818B1B0115A4A51688847ED
:1040F0000020BDE8F08110B586B0044656A207CA7C
:1041000003AB07C357A207CA8DE80700012C09D0EB
:10411000022C0ED103AA0B2140F68220FEF7E2FF0B
:1041200006B010BD6A460B2140F68220FEF7DAFF8A
:10413000F6E74FF0FF30F3E72DE9F04F8DB007467B
:10414000884615469946DDE9166B0024002030802C
:104150004049887B5A4605A9FEF792FC18B1601EBB
:104160000DB0BDE8F08F3B48807A00F014000028C5
:1041700061D09DF8140000069DF8151040EA01403A
:104180009DF8161040EA01209DF81710084328609A
:104190009DF8180000069DF8191040EA01409DF8AE
:1041A0001A1040EA01209DF81B10084368609DF832
:1041B0001C0000069DF81D1040EA01409DF81E10ED
:1041C00040EA01209DF81F100843A8609DF82000D8
:1041D00000069DF8211040EA01409DF8221040EAB7
:1041E00001209DF823100843E86004F11000C4B2D8
:1041F000286800140190686800140290A8680014F0
:104200000390E8680014049001984043029901FB70
:104210000100039901FB0100049901FB010ABAF1B5
:10422000706F02DBBAF1885F22DDFDF761FD0020CF
:104230003080401E94E721E0B8AAB38DB4980D35C4
:104240005D000000B8AAAAAAB088C3C5C7000000D4
:1042500009E3CA02D0000020D8B1B9F38BA391B60C
:1042600009B4D900DAB1B9F38BA391B6DAB4DA00A4
:10427000B6F9000040F48070308000BF3448807A86
:1042800000F0400020B305A9601C085C095D40EA0D
:10429000012000B2A8F8000005A9E01C095C05AAED
:1042A000A01C105C41EA002000B2A8F8020005A999
:1042B000601D095C201D105C41EA002000B2A8F8D6
:1042C0000400A01DC4B2B6F9000040F00800308020
:1042D0001F48408900F4C07008B305A9601C085C41
:1042E000095D40EA012000B2388005A9E01C095CA4
:1042F00005AAA01C105C41EA002000B2788005A944
:10430000601D095C201D105C41EA002000B2B880ED
:10431000A01DC4B2B6F9000040F0700030800C4817
:10432000807A00F0030018B105A90819FFF7B4FE60
:104330004846FDF77AF9002012E70146044801607B
:10434000002070470146024841600020704700008D
:10435000D0000020014691F90020002A01DD002054
:104360001EE091F90020002A01DA042018E091F9FA
:104370000120002A01DD012012E091F90120002A2C
:1043800001DA05200CE091F90220002A01DD02206B
:1043900006E091F90220002A01DA062000E0072059
:1043A000704770B505462846FFF7D4FF0446E81C61
:1043B000FFF7D0FF44EAC00084B2A81DFFF7CAFF90
:1043C00044EA801084B2204670BD70B588B002A95E
:1043D00005A8FEF733FE0446072C3FD101A8FEF7DF
:1043E000D6F9059803F0D6FA0646019903F0FEFACD
:1043F000054603F093FA0590069803F0CBFA0646BB
:10440000019903F0F3FA054603F088FA069007983D
:1044100003F0C0FA0646019903F0E8FA054603F0F6
:104420007DFA079005A8FFF778F96846FEF7CCF902
:10443000BDF80010029848430290BDF800100398A0
:1044400048430390BDF8001004984843049002A824
:10445000FFF7F6F979A0FDF795F802E080A0FDF7E7
:1044600091F808B070BD70B50024FDF709FF04464F
:10447000002C5FD183A0FDF785F87820FDF795F932
:1044800018B989A0FDF77EF802E08FA0FDF77AF851
:104490007820FDF71AFD18B996A0FDF773F802E031
:1044A0009DA0FDF76FF86420FDF70FFE18B9A6A0D8
:1044B000FDF768F802E0AEA0FDF764F8FFF792F8A8
:1044C00018B9B4A0FDF75EF802E0BFA0FDF75AF8F6
:1044D000CC48FFF766FF0546FFF78EF818B9CAA06B
:1044E000FDF750F802E0D2A0FDF74CF840F273104F
:1044F000FFF7C3FC18B9DAA0FDF744F802E0E1A029
:10450000FDF740F86420FFF731FA18B9E9A0FDF78C
:1045100039F802E0F0A0FDF735F8FFF756FF01206B
:10452000FEF747FD18B9F7A0FDF72CF802E0FEA052
:10453000FDF728F870BD2DE9F04F97B00646894683
:1045400092461C46209D01200E9014A813A915AB7D
:104550000FAACDE9001031464846FFF7EDFDBDF842
:104560004C0000F48070002866D00F9803F012FA17
:1045700007464FF09D4103F00FF9F6490860109887
:1045800003F008FA07464FF09D4103F005F9F249A0
:104590000860119803F0FEF907464FF09D4103F0C3
:1045A000FBF8EE490860129803F0F4F907464FF063
:1045B0009D4103F0F1F8EA490860E64801684FF0D0
:1045C000804003F013FA0590E4480168059803F071
:1045D0000DFA0790E04801684FF0404003F006FAFA
:1045E0000590DF480168059803F000FA06900799E6
:1045F00003F070F8834603F041F8CDE9080101F0BB
:104600006DFE4FF06632D74BCDE90A0102F026FD70
:104610000022D54BCDE90C0102F076FA074602F0F4
:1046200041FA2060CD4801684FF0804003F0DEF988
:104630000290CA48016899E165E2000073657474EC
:10464000696E672062696173207375636365736661
:10465000756C6C79202E2E2E2E2E2E0A0000000056
:104660006269617320686173206E6F742062656592
:104670006E206D6F646966696564202E2E2E2E2E65
:104680002E0A00006D707520696E697469616C692D
:104690007A6174696F6E20636F6D706C6574652EDE
:1046A0002E2E2E2E2E0A20006D70755F7365745F9E
:1046B00073656E736F7220636F6D706C65746520C7
:1046C0002E2E2E2E2E2E0A006D70755F7365745F70
:1046D00073656E736F7220636F6D65206163726FB7
:1046E0007373206572726F72202E2E2E2E2E2E0A5C
:1046F000000000006D70755F636F6E6669677572AC
:10470000655F6669666F20636F6D706C65746520A8
:104710002E2E2E2E2E2E0A006D70755F636F6E6624
:1047200069677572655F6669666F20636F6D652086
:104730006163726F7373206572726F72202E2E2EFA
:104740002E2E2E0A000000006D70755F7365745F79
:1047500073616D706C655F7261746520636F6D70FD
:104760006C657465202E2E2E2E2E2E0A0000000061
:104770006D70755F7365745F73616D706C655F728A
:10478000617465206572726F72202E2E2E2E2E2E71
:104790000A000000646D705F6C6F61645F6D6F7420
:1047A000696F6E5F6472697665725F6669726D7754
:1047B00061726520636F6D706C657465202E2E2E9E
:1047C0002E2E2E0A00000000646D705F6C6F616415
:1047D0005F6D6F74696F6E5F6472697665725F6634
:1047E00069726D7761726520636F6D6520616372B8
:1047F0006F7373206572726F72202E2E2E2E2E2EE6
:104800000A00000071000020646D705F7365745FC2
:104810006F7269656E746174696F6E20636F6D701D
:104820006C657465202E2E2E2E2E2E0A00000000A0
:10483000646D705F7365745F6F7269656E746174C7
:10484000696F6E20636F6D65206163726F73732093
:104850006572726F72202E2E2E2E2E2E0A000000F0
:10486000646D705F656E61626C655F6665617475CD
:10487000726520636F6D706C657465202E2E2E2E10
:104880002E2E0A00646D705F656E61626C655F66F6
:1048900065617475726520636F6D65206163726F09
:1048A0007373206572726F72202E2E2E2E2E2E0A9A
:1048B00000000000646D705F7365745F6669666F09
:1048C0005F7261746520636F6D706C657465202E16
:1048D0002E2E2E2E2E0A0000646D705F7365745F9D
:1048E0006669666F5F7261746520636F6D652061D4
:1048F00063726F7373206572726F72202E2E2E2E6C
:104900002E2E0A006D70755F7365745F646D705F45
:10491000737461746520636F6D706C657465202EAF
:104920002E2E2E2E2E0A00006D70755F7365745F3B
:10493000646D705F737461746520636F6D65206171
:1049400063726F7373206572726F72202E2E2E2E1B
:104950002E2E0A0060000020640000206800002065
:104960006C00002066A64C400000F03F029803F067
:104970003DF88346664801684FF0404003F036F842
:10498000029063480168029803F030F8594603909A
:1049900003F0F8F880464FF07E5102F09BFE074688
:1049A00002F06CFECDE906015A4801684FF08040E4
:1049B00003F01CF8039056480168039803F016F8BA
:1049C0008046554801684FF0804003F00FF803908F
:1049D00052480168039803F009F88346414602F003
:1049E00079FE074602F04AFECDE90401DDE906231F
:1049F00001F0C4FE4FF06632494BCDE9080102F0E8
:104A00002DFB00224FF04043CDE90A0102F07CF873
:104A1000CDE90C0102F046F8CAF800003F480168F1
:104A2000006802F0E3FF05903B480168006802F06F
:104A3000DDFF039036480168006802F0D7FF01905F
:104A400034480168006802F0D1FF0090019902F03B
:104A500041FE0290039903F095F80490059903F044
:104A600091F8834602F00AFE074688462B48016803
:104A70002848006802F0BAFF0490274801682448DB
:104A8000006802F0B3FF0390049902F023FE4FF098
:104A90008041059002F0AAFF834602F0EFFD3A46FE
:104AA0004346CDE9060101F069FE4FF066321C4B2A
:104AB000CDE9080102F0D2FA00221346CDE90A013D
:104AC00002F022F8CDE90C0101F0ECFF2860286823
:104AD00002F0D4FD0022134BCDE90C0102F0BEFA26
:104AE000074601F0DFFF2860206802F0C7FD074697
:104AF00000220C4B02F0B2FACDE90C0101F0D2FF1A
:104B0000206000200E900E9817B0BDE8F08F0000D6
:104B10006400002060000020680000206C0000207D
:104B200066A64C400000F0BF08B50720009002E0E8
:104B30000098401E009000980028F9D108BD08B5E3
:104B400001210820FBF7BAFFC020ADF800000320C8
:104B50008DF8020014208DF803006946D748FBF752
:104B6000F1FC08BD10B58020D44910310860402008
:104B70000860FFF7D9FFD1480830006808B9012064
:104B800000E0002000F0800008B1002010BD80206F
:104B9000CA4914310860FFF7C7FFC84808300068E9
:104BA00000F0800008B10020F0E78020C3491431F4
:104BB0000860FFF7B9FF0120E8E710B54020BF49C2
:104BC00014310860FFF7B0FF8020BC491431086041
:104BD000FFF7AAFF4020B94910310860FFF7A4FF92
:104BE0008020B64910310860FFF79EFF10BD10B558
:104BF0004020B24914310860FFF796FF8020AF498A
:104C000014310860FFF790FF4020AC491031086074
:104C1000FFF78AFF4020A94914310860FFF784FF9D
:104C200010BD10B54020A54914310860FFF77CFF86
:104C30008020A24910310860FFF776FF40209F498D
:104C400010310860FFF770FF40209C491431086064
:104C5000FFF76AFF10BD10B5402098491431086075
:104C6000FFF762FF8020954910310860FFF75CFF75
:104C70004020924910310860FFF756FF8F480830F6
:104C8000006800F0800028B140208C491431086091
:104C9000002010BD40208949143108600120F8E748
:104CA00070B5044608251BE0402084491431086093
:104CB000FFF73AFF04F0800020B180207F491031D7
:104CC000086003E080207D49143108606006040E0E
:104CD000FFF72AFF4020794910310860FFF724FFD1
:104CE0002800A5F10101CDB2DED140207349143175
:104CF000086070BD70B50825002480206F49103110
:104D0000086015E06006040E40206C49143108600C
:104D1000FFF70AFF4020694910310860FFF704FFE0
:104D200066480830006800F0800008B144F00104D3
:104D30002800A5F10101CDB2E4D140205F49143132
:104D40000860204670BD2DE9F04105460E46174625
:104D50009846FFF707FF10B90020BDE8F081002159
:104D600041EA4501C8B2FFF79BFFFFF774FF18B98E
:104D7000FFF723FF0020F0E73046FFF791FFFFF732
:104D80006AFF00240BE018F80400FFF789FFFFF723
:104D900062FF18B9FFF711FF0020DEE7641CBC4278
:104DA000F1DBFFF70AFF0120D7E72DE9F0410446C8
:104DB0000D4616461F463B46324629462046FFF71B
:104DC000C2FF10B10020BDE8F0814FF0FF30FAE7DC
:104DD0002DE9F04105460F4614461E46FFF7C2FE78
:104DE00010B90020BDE8F081002141EA4501C8B2B8
:104DF000FFF756FFFFF72FFF18B9FFF7DEFE002081
:104E0000F0E73846FFF74CFFFFF725FFFFF7AAFE54
:104E1000012101EB4501C8B2FFF742FFFFF71BFF7D
:104E20000CE0FFF767FF3070012C02D1FFF7F9FEAD
:104E300001E0FFF7DCFE761C601EC4B2002CF0D14E
:104E4000FFF7BBFE0120CDE72DE9F04104460D46FA
:104E500016461F463B46324629462046FFF7B8FF16
:104E600010B10020BDE8F0814FF0FF30FAE770B5D7
:104E700004460D461646FFF775FE08B9002070BDC2
:104E8000002141EA4401C8B2FFF70AFFFFF7E3FE41
:104E900018B9FFF792FE0020F1E72846FFF700FF60
:104EA000FFF7D9FE3046FFF7FBFEFFF7D4FEFFF712
:104EB00084FE0120E3E7002070470000000C014061
:104EC000FE4909880180FD4949884180FB4989885C
:104ED0008180704700BF0100A0F10100FBD1704745
:104EE00000B500231846FFF7F5FF00BD00B5F448F4
:104EF000006840F08000F24908600846006840F011
:104F000040000860FFF7ECFFED48006820F08000EB
:104F1000EB490860FFF7E4FFE948006820F08000F3
:104F2000E7490860FFF7DCFF00BD00B5E448006812
:104F300020F04000E2490860FFF7D2FFE048006837
:104F400020F08000DE490860FFF7CAFFDC480068F7
:104F500040F04000DA490860FFF7C2FFD848006817
:104F600040F08000D6490860FFF7BAFF00BDD54881
:104F7000806940F00800D3498861D1480C38006846
:104F800020F07F40CE490C3908600846006840F0A8
:104F9000E6400860CA48006840F08000C8490860E0
:104FA0000846006840F040000860704730B504468D
:104FB000002500BF25E0C248006820F04000C0493D
:104FC0000860FFF78DFF04F0800030B1BC48006836
:104FD00040F08000BA49086005E0B948006820F058
:104FE0008000B74908606006040EFFF779FFB448F7
:104FF000006840F04000B2490860FFF771FF681C8C
:10500000C5B2082DD7DBAE48006820F04000AC499F
:10501000086030BD30B500250024A948006840F084
:105020008000A749086000BF1BE06006040EA4488A
:10503000006820F04000A2490860FFF751FFA04837
:10504000006840F040009E490860FFF749FF9C4817
:10505000001F006800F0800008B144F00104681CE3
:10506000C5B2082DE1DB9648006820F04000944965
:105070000860204630BD00B59148006820F040002F
:105080008F490860FFF72CFF8D48006840F08000D2
:105090008B490860FFF724FF8948006840F0400012
:1050A00087490860FFF71CFF8548001F0068002043
:1050B00040B18348006820F0400081490860FFF754
:1050C0000FFF00BD7E48006820F040007C4908606A
:1050D000FFF706FF00BFF4E710B504467848006804
:1050E00020F0400076490860FFF7FAFE34B97448B2
:1050F000006820F080007249086007E0012C05D1AB
:105100006F48006840F080006D490860FFF7E8FED6
:105110006B48006840F0400069490860FFF7E0FE16
:105120006748006820F0400065490860FFF7D8FE36
:1051300010BD70B506460C461546FFF7D7FE304643
:10514000FFF734FFFFF797FF2046FFF72FFFFFF72A
:1051500092FF2846FFF72AFFFFF78DFFFFF7E5FED6
:1051600070BDF0B506460F4614461D46FFF7BEFE5D
:105170003046FFF71BFFFFF77EFF3846FFF716FFAD
:10518000FFF779FFFFF7B2FE711CC8B2FFF70EFF01
:10519000FFF771FF08E0FFF73DFF20700020FFF7E9
:1051A0009BFF681EC5B2641C022DF4DAFFF732FFC4
:1051B00020700120FFF790FFFFF7B7FEF0BD38B574
:1051C00004460D4601236A4629462046FFF7C9FFDB
:1051D0009DF8000038BD00B5182209211046FFF7E0
:1051E000A8FF3948FFF776FE11220A211820FFF7A1
:1051F000A0FF02223721D020FFF79BFF3248FFF7A4
:1052000069FE00BD00B5FFF7B2FE00226B21D02081
:10521000FFF78FFF07221921D020FFF78AFF062210
:105220001A21D020FFF785FF18221B21D020FFF77D
:1052300080FF00221C21D020FFF77BFFFFF7CBFF70
:105240002148FFF747FE00BD7CB504460D461646D3
:105250000020009001903C21D020FFF7B0FF8DF896
:1052600000003B21D020FFF7AAFF8DF801009DF838
:1052700000009DF8011040EA012000B260803E214C
:10528000D020FFF79CFF8DF802003D21D020FFF7D2
:1052900096FF8DF803009DF802009DF8031040EA88
:1052A000012000B220804021D020FFF788FF8DF838
:1052B00004003F21D020FFF782FF07E07A000020A2
:1052C0000C0C01400010024020A107008DF80500E1
:1052D0009DF804009DF8051040EA012000B2A0806E
:1052E0004421D020FFF76BFF8DF800004321D02030
:1052F000FFF765FF8DF801009DF800009DF8011093
:1053000040EA0120404200B268804621D020FFF7E9
:1053100056FF8DF802004521D020FFF750FF8DF891
:1053200003009DF802009DF8031040EA012040426E
:1053300000B228804821D020FFF741FF8DF80400FB
:105340004721D020FFF73BFF8DF805009DF80400B2
:105350009DF8051040EA0120404200B2A8800122D9
:105360000A211820FFF7E5FE2148FFF7B3FD0321CE
:105370001820FFF724FF8DF8000004211820FFF704
:105380001EFF8DF801009DF800009DF8011040EA15
:105390000120404200B2708005211820FFF70FFF66
:1053A0008DF8020006211820FFF709FF8DF8030091
:1053B0009DF802009DF8031040EA0120404200B22F
:1053C000308007211820FFF7FAFE8DF8040008212D
:1053D0001820FFF7F4FE8DF805009DF804009DF8F5
:1053E000051040EA0120404200B2B0807CBD0000C0
:1053F000A08601002DE9F04106460C461546696875
:10540000A06802F0F3FA0746A968606802F0EEFAB5
:105410008046394602F0B6FB3060A968206802F089
:10542000E5FA07462968A06802F0E0FA80463946A6
:1054300002F0A8FB70602968606802F0D7FA07469E
:105440006968206802F0D2FA8046394602F09AFB79
:10545000B060BDE8F0812DE9F04F85B0FE480068EE
:1054600002F00CF9044601F049FA064601F01AFB75
:105470000390F948006802F001F9044601F094FA3B
:10548000064601F00FFB0290F448006802F0F6F8BF
:10549000044601F033FA064601F004FB0190EF48A0
:1054A000006802F0EBF8044601F07EFA064601F0CF
:1054B000F9FA0090EA498868039902F097FA0646DB
:1054C000009902F093FA0446E5494868029902F00F
:1054D0008DFA8046009902F089FA0646E04908688C
:1054E000019902F083FA0746314602F0F3F80546C7
:1054F000214602F0EFF88246D9498868029902F005
:1055000075FA0446D6494868039902F06FFA0546D1
:10551000214602F037FB0490504602F0AFF80646F1
:105520000F46049880F0004B584602F0A7F88046DA
:1055300032463B4601F022F9044601F0B3FAC9496C
:10554000086005B0BDE8F08F2DE9F04F87B0044644
:105550000D4616461F46384602F090F8CDE9000188
:1055600001F0CCF9CDE9020101F09CFA0590384632
:1055700002F084F8CDE9000101F016FACDE902014C
:1055800001F090FA8046304602F078F8CDE900014B
:1055900001F0B4F9CDE9020101F084FA8146304608
:1055A00002F06CF8CDE9000101F0FEF9CDE902014D
:1055B00001F078FA8246284602F060F8CDE9000151
:1055C00001F09CF9CDE9020101F06CFA834628460E
:1055D00002F054F8CDE9000101F0E6F9CDE902014D
:1055E00001F060FA04905946484602F0FFF9206045
:1055F000DDE9041002F0FAF941460390584602F042
:10560000F5F95146019002F0F1F90290039902F088
:10561000B9FA60605946059802F0E8F951460190E0
:1056200002F0E4F903904046049902F0DFF9029099
:10563000039902F04FF8A0604846049902F0D6F9A9
:10564000E0605146404602F0D1F90190049902F021
:10565000CDF959460390059802F0C8F902900399D4
:1056600002F038F820614146584602F0BFF9514631
:105670000390059802F0BAF90190049902F0B6F986
:105680000290039902F07EFA60618AF00040A06106
:105690004146484602F0AAF9E0614946059802F001
:1056A000A5F9206207B0BDE8F08F2DE9F04F91B069
:1056B0000646894692461D466B4A07CA08AB07C391
:1056C000002400BF15E036F9140002F063F96749C1
:1056D00041F8240039F9140002F05CF9644941F8FA
:1056E00024003AF9140002F055F95D4941F824000C
:1056F000641C032CE7DB5D4A9168906802F076F940
:105700005A4A01905168506802F070F9009001996E
:1057100001F0E0FF834601F0B1FFCDE9020101F0A5
:105720009BF9CDE904015149086801F0A7FF07463C
:10573000DDE9042301F022F881F00041CDE9060102
:1057400001F0B0F94549086008AA48490EA8FFF7DA
:1057500051FE0EAA08A90BA8FFF74CFE0D9801F008
:105760008DFFCDE906010C9801F088FFCDE9040119
:10577000DDE9062301F002F8074601F093F9364906
:105780000860FFF768FE374800683A490860324809
:10579000036832480268084601683748FFF7D4FEBC
:1057A0003549886901F06AFFCDE9060100F096FDF0
:1057B00081F00041074601F075F9284908602E493B
:1057C000086A01F05BFFCDE906012B49C86901F0C9
:1057D00055FFCDE90401DDE9062300F0CFFF0746C0
:1057E00001F060F91C4908602349086801F046FF90
:1057F000CDE906012049C86801F040FFCDE9040168
:10580000DDE9062300F0BAFF074601F04BF919491C
:1058100008601248006801F031FF184A184BCDE9C2
:10582000060101F01BFC074601F03CF90B4908603A
:105830000948006801F022FF104A114BCDE906012A
:1058400001F00CFC074601F02DF9034908600948F6
:10585000006801F013FF15E0A00000209C0000206C
:10586000F8000020A8000020B8890008E00000200F
:10587000EC000020A4000020AC000020E79AD561D5
:1058800094A94C400B4A0C4BCDE9060101F0E6FB14
:10589000074601F007F909490860094800682860CF
:1058A00008480068686008460068A86011B0BDE854
:1058B000F08F0000E79AD56194A94C40A400002025
:1058C000A00000209C00002070B592B00646002089
:1058D000109011900E900F900C900D900A900B90DC
:1058E000079008900990049005900690019002900E
:1058F000039000250024FFF785FC0AA8FFF7E0FAD3
:1059000000BF32E00CAA0EA910A8FFF79DFC0024EE
:1059100028E007A850F8240010A931F91410084411
:1059200007A941F8240004A850F824000EA931F971
:105930001410084404A941F824000CA830F81400FD
:105940000AA931F81410401A00B20CA921F8140069
:1059500001A850F8240031F91410084401A941F8B5
:105960002400641C032CD4DB6D1C322DCADB002503
:105970001EE007A850F82500322190FBF1F000B29C
:1059800010A921F8150004A850F82500322190FB39
:10599000F1F000B20EA921F8150001A850F8250079
:1059A000322190FBF1F000B20CA921F815006D1C1A
:1059B000032DDEDB33460CAA0EA910A8FFF775FEF7
:1059C00012B070BD10B54C1084EA530404D54042A7
:1059D000C1F1000138BF491E1B4204D55242C3F138
:1059E000000338BF5B1E00F06FF814F0804F04D046
:1059F0004042C1F1000138BF491E14F0004F04D0ED
:105A00005242C3F1000338BF5B1E10BD40EA0103E0
:105A100010B59B070FD1042A0DD310C808C9121F57
:105A20009C42F8D020BA19BA884201D9012010BD91
:105A30004FF0FF3010BD1AB1D30703D0521C07E05E
:105A4000002010BD10F8013B11F8014B1B1B07D1C2
:105A500010F8013B11F8014B1B1B01D1921EF1D133
:105A6000184610BD02F0FF0343EA032242EA024255
:105A700000F0AEB84FF0000200B5134694469646CB
:105A8000203922BFA0E80C50A0E80C50B1F1200151
:105A9000BFF4F7AF090728BFA0E80C5048BF0CC0FF
:105AA0005DF804EB890028BF40F8042B08BF70475D
:105AB00048BF20F8022B11F0804F18BF00F8012BCF
:105AC000704770477047704753EA020C00F06980D6
:105AD0002DE9F04B4FF00006002B1FBFB3FA83F502
